:060000000A128A11FC2F18
:100EE4000130831203139F00831603139F0108002C
:100EF4007C308316031392008312031395010C3084
:100F04009700053092000800F300C33083120313E6
:100F14009F057308F20001300310F20DFF3E031D1C
:100F24008E2F0310720D9F040330F200F20B982FE2
:100F3400831203139F149F18A02FA12F9D2F1E0807
:100F4400F100831603131E08F00008000430710238
:100F5400003003197002031CB02FB12FB52FFF30DE
:100F6400F0000330F1007108F3007008F200031080
:100F7400F30CF20C0310F30CF20C7208831203133B
:100F8400950070080339F200F20E17087206CF3983
:100F940072069700080001308316031385000711B9
:100FA4000A128A1172270A128A110A128A117A27DE
:100FB4000A128A1100300A128A1186270A128A112B
:100FC4007108F7007008F6007708F1007608F00061
:100FD4000A128A11A8270A128A111A30F500F83069
:100FE400F400F40BF32FF50BF32F0000DC2F0A129F
:0C0FF4008A11002883010A128A11CD2FF7
:02400E00F4209C
:00000001FF
